:020000040000fa
:10000000f07f0020b5380000572d00002f3400008d
:1000100000000000000000000000000000000000e0
:10002000000000000000000000000000cb270000de
:100030000000000000000000cb270000893e000007
:10004000cb270000cb270000cb2700003134000075
:10005000cb270000cb270000cb270000cb270000d8
:100060004d3500004d36000099190000f9350000ab
:10007000d51f0000cb270000cb270000cb270000b6
:10008000cb270000cb270000cb270000000000009a
:1000900000000000cb270000cb270000cb2700008a
:1000a000cb270000cb270000cb270000cb27000088
:020000040000fa
:1000b000f8b5c046f8bc08bc9e46704795380000ad
:1000c000f8b5c046f8bc08bc9e4670476d380000c5
:020000040000fa
:0800d0001826000001000000e9
:020000040000fa
:1000d800f0b5c64600b582b0002003f077fb0021da
:1000e800e54804f0e9f80022e449062003f0a0fe00
:1000f8000022e349072003f09bfe04f041f803f0d7
:10010800a9ffe04b802292049a6198220821995015
:10011800dd4803f0c9fe0a2004f0d4f8db4803f0f8
:10012800c3fedb4803f0c0feda4803f027fcda4bd5
:10013800da4a1a621a00042351680b42fcd1d848e3
:1001480003f0b2fe322004f0bdf8d64803f0acfe4e
:10015800fa20c00003f012fcd34c01232370d348cb
:1001680003f0a2fed24902230b70d24b1b784b70ce
:10017800d14b1b788b700322202003f067fd207081
:1001880003f06afe0028fbd1c94906230b70cb4b4c
:100198001b784b70ca4b1b788b700322203003f0fe
:1001a80055fdc14b187003f057fe0028fbd1be4b1c
:1001b8001b78002b00d17fe2c24803f075febc49d2
:1001c80006230b70bd4b1b78102293434b70bc4b1e
:1001d8001b788b700d3a202003f038fdb24b187055
:1001e80003f03afe0028fbd1023003f0c7fbb04908
:1001f80002230b70af4a13780420034313704b702b
:10020800ad4b1b788b700322202003f01ffd03f0f9
:1002180023fe0028fbd1023003f0b0fba4490623db
:100228000b70a64b1b78102213434b70a44b1b7802
:100238008b700322202003f009fd9b4b187003f0fc
:100248000bfe0028fbd1a04803f098fb9f4803f061
:100258002bfec02149010a2003f008ff03f08afea3
:1002680003f010ff0028fbd004f01af80100984ba7
:100278001880984803f050fe8d4902230b708d4b6f
:100288001b78022213434b708b4b1b788b70032215
:10029800202003f0dbfc03f0dffd0028fbd1143045
:1002a80003f028fc03f066fe03f0ecfe0028fbd008
:1002b80003f0f6ff0100864c2080874803f02cfeef
:1002c800c8235b0022889a4200d8f9e1834803f0ea
:1002d800ebfd774920230b7024334b700222192041
:1002e80003f0b4fc03f0b8fd0028fbd1013003f0a3
:1002f80045fb6f490f230b70794b00221a700132ae
:100308000092192003f04efc03f0a6fd0028fbd153
:10031800734b1978442900d1d6e1724803f0fcfdeb
:10032800634902230b70634a137804200343137054
:100338004b70614b1b788b700322202003f086fce6
:1003480003f08afd0028fbd1023003f017fb58495f
:10035800fa230b70624b00221a7001320092282097
:1003680003f020fc03f078fd0028fbd15c4b1978e2
:10037800232900d1ace15c4803f0cefd4c490223af
:100388000b704c4a13780820034313704b704a4b88
:100398001b788b700322202003f058fc03f05cfdcf
:1003a8000028fbd1323003f0e9fa4149ff230b70f2
:1003b8004b4b00221a7001320092572003f0f2fbd7
:1003c80003f04afd041efbd1454b1978152900d1cd
:1003d80082e1464803f0a0fd454803f065fdfa2197
:1003e8004900002003f05afe264b802292039a61ae
:1003f800d2099a613f4803f07dfbc02149010520dd
:1004080003f034fe322003f075fb03f0b3fd03f074
:1004180039fe0028fbd003f043ff0500c021490145
:10042800042003f023fe322003f064fb03f0a2fd56
:1004380003f028fe0028fbd003f032ff01002a0059
:100448002d4803f069fdfa218900002003f026fefb
:100458000c4b802292039a61d2099a61254803f0d5
:1004680049fbc0214901052003f000fe322003f0ba
:1004780041fb03f07ffd41e0893c00002942000078
:1004880039420000002800402810000040100000f9
:1004980060100000b80b00000018004008010100bf
:1004a8007810000094100000c5050020b41000006a
:1004b800a8050020c3050020c4050020c7050020aa
:1004c800ec050020c8100000dc050000f810000052
:1004d800c00500200c1100001c1100002c110000a8
:1004e80084050020501100007c110000b0110000ac
:1004f800d411000088130000f011000003f0c2fdc1
:100508000028fbd003f0ccfe0500c02149010420df
:1005180003f0acfd322003f0edfa03f02bfd03f0fd
:10052800b1fd0028fbd003f0bbfe01002a00d9482a
:1005380003f0f2fcfa21c900002003f0affdd64b0e
:10054800802292039a61d2099a61d44803f0d2fac0
:10055800c0214901052003f089fd322003f0cafac1
:1005680003f008fd03f08efd0028fbd003f098fe91
:100578000500c0214901042003f078fd322003f072
:10058800b9fa03f0f7fc03f07dfd0028fbd003f077
:1005980087fe01002a00c24803f0befcc1490020c2
:1005a80003f07cfdbc4b802292039a61d2099a61c8
:1005b800ba4803f09ffac0214901052003f056fd0f
:1005c800322003f097fa03f0d5fc03f05bfd002816
:1005d800fbd003f065fe0500c0214901042003f0ab
:1005e80045fd322003f086fa03f0c4fc03f04afd0f
:1005f8000028fbd003f054fe01002a00aa4803f0ab
:100608008bfcfa21c900002003f048fda24b802290
:1006180092039a61d2099a61a04803f06bfac0214b
:100628004901052003f022fd322003f063fa03f0ac
:10063800a1fc03f027fd0028fbd003f031fe0600e3
:10064800c0214901042003f011fd322003f052fac1
:1006580003f090fc03f016fd0028fbd003f020fe09
:10066800050032000100914803f056fc8a4b8022b5
:1006780092035a61d2095a6103f02afe07008c4b93
:1006880000221a708b4803f047fc894b9846434672
:100698001b78132b24d803f01bfec01b3128f6d976
:1006a80003f016fe07002e2003f092fd804b1b7806
:1006b80001337f4a1370eae77f4803f0f5fb7ee5d4
:1006c8007e4803f0f1fb04e67d4803f0edfb27e6e6
:1006d8007c4803f0e9fb51e67b4803f0e5fb7be649
:1006e8007a4803f0e1fb7a4b01221a70c0214901d4
:1006f800052003f0bbfc03f03dfc03f0c3fc00281d
:10070800fbd003f0cdfd734b1880311aca178b1834
:1007180053403c2b00dca1e06f4803f0fdfb6c4b21
:1007280000221a70c0214901042003f09ffc03f045
:1007380021fc03f0a7fc0028fbd003f0b1fd654bba
:100748001880291aca178b1853403c2b00dc89e003
:10075800624803f0e1fb5e4b00221a70c021490198
:10076800072003f083fc322003f0c4f903f002fcf5
:1007780003f088fc0028fbd003f092fd0500554edd
:10078800308003f0d9fb03f0b5f80022544b01f098
:10079800f9f90022534b01f0f5f902f013fe03f0ca
:1007a800a9f802000b0029004f4803f0b5fb962377
:1007b8005b0032889a4261d94c4803f075fbc0212e
:1007c8004901062003f052fc322003f093f903f0ac
:1007d800d1fb03f057fc0028fbd003f061fd0500b6
:1007e8003c4e308003f0a8fb03f084f800223c4b19
:1007f80001f0c8f900223b4b01f0c4f902f0e2fd18
:1008080003f078f802000b002900394803f084fb54
:1008180096235b0032889a4234d9344803f044fb6b
:10082800142003f0abf8224854230370012101f08f
:10083800f9fc022003f0a2f803f0f0fb002865d0d1
:100848001b4d00232b700121280002f01ffb2b7881
:10085800542b1bd0274803f027fb5ae0264803f007
:100868005bfb5fe7254803f057fb194b1b78002b10
:1008780000d173e7224803f017fb6fe7214803f024
:1008880013fb9ce71f4803f00ffbc9e71e4803f062
:100898000bfb3ee010120000002800408813000007
:1008a8002c120000b80b000048120000641200006f
:1008b800c605002084120000dc100000341100007e
:1008c8003c1100006c110000a0110000a0120000f3
:1008d800c5050020c0050020a4120000e012000099
:1008e8000000303f00000840301300004c130000a7
:1008f8006413000098130000c812000004130000dd
:100908001c1300005413000084130000834803f0f4
:10091800cbfa834b01221a70824803f0c5fa03f020
:10092800fdf903f05ffb0028fbd003f0f7f97e48e0
:1009380003f0bafa7d4d80263605ae61c021490123
:10094800122003f093fbc82003f0d4f86e61322024
:1009580003f0d0f803f00efb03f094fb0028fbd063
:1009680003f09efc0100724d2880724803f0d4fa0f
:10097800fa235b002a889a4202d9694b00221a702e
:10098800c0214901012003f071fb642003f0b2f893
:1009980003f0f0fa03f076fb0028fbd003f080fcac
:1009a8000100634d2880644803f0b6fafa235b001f
:1009b8002a889a4202d95a4b00221a705b4a982315
:1009c80080210901d150642003f094f85b4803f0ba
:1009d8006bfac0214901122003f048fb642003f0a0
:1009e80089f803f0c7fa03f04dfb0028fbd003f0a9
:1009f80057fc01004e4d28804e4803f08dfa504bad
:100a08002a889a4202d8464b00221a70c02149010e
:100a1800012003f02bfb642003f06cf803f0aafa22
:100a280003f030fb0028fbd003f03afc0100404df6
:100a38002880414803f070fa2b88414a934202d833
:100a4800374a002111703f4a1370384b8022120533
:100a58009a61fa20400003f04df803f08bfa03f096
:100a680011fb051efbd003f01bfc0100304e30804b
:100a7800354803f051fa33884b33324a127893429f
:100a880002da274b00221a70284b94228021090190
:100a98009950802212055a612c4803f03dfa204be8
:100aa8001b78002b0dd02a4803f0fef903f036f925
:100ab800284803f0f9f91a4b00221a70260001277a
:100ac80006e0254803f0f0f9f0e72e00002c1fd1ce
:100ad80003f088fa00280fd1114b1b78002b0bd19b
:100ae800124aa023d3585b020ad5a023d3581b026d
:100af800ebd5002eecd0e8e7184803f0d5f9fee76f
:100b08000a4aa023d3581b0202d52c00002edfd09e
:100b1800034b1f702e002c00dae7c0469813000024
:100b2800c5050020b4130000dc13000000280040b5
:100b3800c0050020e8130000f813000004140000aa
:100b4800cf070000c60500200c1400002814000080
:100b58002c11000050140000401400007414000010
:020000040000fa
:100b6800f0b59bb013930b6815900a938b680d91a1
:100b78000b930b694d681893cb680293136808931d
:100b880053680898069300220023069902f075ff1f
:100b980000280dd10a9b5b073bd408200a9b034021
:100ba80009930b9b0393099b002b0fd0202306e08e
:100bb800802212069446069b634406932d23029acc
:100bc80013700b9b013b039301230993069b089920
:100bd8005b005b08924a00291dd193421bd1029900
:100be800139b8c46099a413b624410008d49192b8e
:100bf80000d98d4903f072fb029803f08bfa0a9b27
:100c08000200009302990b9b159802f02ffb1bb072
:100c1800f0bd2b23d3e7934203d80ed1089b002bba
:100c28000bd00299139b8c46099a413b62441000f1
:100c38007e49192bded97e49dce70022002308987b
:100c4800069903f0b1f800267a4f002400283ed117
:100c5800040002e00134049e059f0022764b300018
:100c6800390000f08fff089a069b0490059102f066
:100c7800e5fe0028eed00023049320e06f4b9c4251
:100c880014da049b002b11d100226d4b08980699a9
:100c980000f078ff6a4b0890069130003900002276
:100ca80000f070ff012306000f00049330003900a4
:100cb8000022614b01f0d6fe06000f00013c320015
:100cc8003b000898069902f0d8fe0028d6d1139860
:100cd80003f0defac3b20c93002d00da94e104931a
:100ce800672b00d0b2e0002d00d189e1231d02db83
:100cf800ac4200daa6e06523b6e0002200230e929b
:100d08000f9303e106960797049b2600652b00d0f6
:100d18001ae1002618e1129b002b0bd1002e09daec
:100d2800029a14992e335354039b0137013b0393c2
:100d380001231293ea193b009446302102e0029afb
:100d4800d15401339c45fad1039aeb19551b029ae9
:100d580030305f1cd0546b1e0393002521e00d9b9f
:100d680014971b691093053bbb4200d8f5e0069a1f
:100d7800079b08980e9901f075fe01f035ff109059
:100d8800119102f0b1ff092800dd092010230a9a09
:100d980013400343bfd10c9b672bbcd1002ec9da8b
:100da80001358020000684460e99089a61440b009c
:100db8001098119900920193069a079b03f060fa24
:100dc80080231b06cb1808900e93069807990022db
:100dd800194b01f047fe013e06900791b9e00a9bc6
:100de800db0600d4bde02e23029ad3550137b8e0c4
:100df80020000a2101f0f6ff029b3031013d5955d0
:100e080020000a2101f0a4ff039b0400013b039387
:100e1800b7e0029b03991a5c5b181a540138e0e0aa
:100e28000000f07f684200006c4200007042000041
:100e3800744200000000f03f00002440d4feffff91
:100e480000005043002c0eda66230493049b0135fe
:100e5800662b0ad1002c02da002600246d4f0c9b69
:100e6800672b00d02d1966230493089b0e960f97c5
:100e78001293069b1093002314930e9a0f9b1298bb
:100e8800109901f0effd01f0affe1690179102f0f6
:100e98002bff19908020000684461099129a61440d
:100ea8000b0016981799009201930e9a0f9b03f066
:100eb800e7f980231b06cb18129010930e980f9910
:100ec800554b002201f0cefd149b0e900f9101337b
:100ed80014939d42d1d10022504b00f053fe0e9046
:100ee8000f9102000b001298109902f0c6fd00281d
:100ef80000d002e70e9a0f9b1298109902f054ff47
:100f0800002803d0199bdb0700d4f6e60e9a0f9b46
:100f18000898069900f058fc002208900e913e4b64
:100f28003000390000f02efe089a0e9b06900791bb
:100f380002f002fd002800d1e4e6049b0134662b90
:100f480000d0e1e626000135731b0025099f1693a2
:100f58001295169b9e4200d001e7129b002b00d1f0
:100f68003de70026029bdb1906931e70049b652b48
:100f78002ad1189b5d1e029b5e55b44201da644279
:100f88000136002c00d033e7189beb1a0333002bf3
:100f980000dd2de76a1e2d23002e00d1023b0299a9
:100fa800023d8b54139b413b192b01d845230493d5
:100fb800029b5919049b0b70039b023b0393af429e
:100fc80002da069803f08af903230a9a1340022bdf
:100fd80000d011e6039b002b00dc0de6029803f01d
:100fe80099f8099b834200dc13e7029a3021944662
:100ff80063441800039a03f0f5f800230b93fbe50c
:10100800012573e6062571e60c9b672bfad004933d
:1010180006251be70000f03f0000244000001440b4
:020000040000fa
:101028000d0a0d0a2a2a2a20546573742053746104
:101038007274202a2a2a0d0052756e6e696e672016
:101048006f6e2044504c4c20496e7465726e616c12
:1010580020436c6f636b0d00477265656e204c45cd
:1010680044204641535420526174650d000000002d
:101078004e6f772052756e6e696e67206f6e2046d0
:10108800504c4c20436c6f636b0d000043686563e4
:101098006b20477265656e20486561727462656190
:1010a80074204c45442e2e2e0d000000496e6974a4
:1010b80020457870616e6465722e2e2e0d0000003a
:1010c800457870616e64657220496e69742050615c
:1010d80073730d00457870616e64657220496e699e
:1010e80074202a2a2a204641494c202a2a2a0d00ff
:1010f8005465737420546865726d6973746f720dea
:10110800000000004f66662056616c75653a202520
:10111800640d0a004f6e2056616c75653a2025648f
:1011280020200000504153530d00000041494c0d50
:1011380000000000416363656c65726f6d657465de
:101148007220504153530d00416363656c65726fa3
:101158006d65746572204641494c202d2025640d2b
:101168000a00000050726f78204465742050415383
:10117800530d000050726f7820446574202a2a2a83
:101188002020204641494c2020202a2a2a202d2090
:1011980025640d0a0000000050756c7365204f78b7
:1011a80020504153530d000050756c7365204f78e3
:1011b800202a2a2a2020204641494c2020202a2a59
:1011c8002a202d2025640d0a000000005465737440
:1011d800205265666572656e636520436972637542
:1011e8006974730d000000004441433a20353030e3
:1011f80020202048693a20202564204c6f3a20207e
:1012080025640d0a000000004441433a2031303083
:1012180030202048693a202564204c6f3a20256404
:101228000d0a00004441433a203230303020204833
:10123800693a202564204c6f3a2025640d0a000085
:101248004441433a2033303030202048693a202541
:1012580064204c6f3a2025640d0a000048696768cd
:101268002053746172743a20256420204c6f7720d3
:1012780053746172743a2025640d0a0054657374be
:101288002053616d706c6520486f6c640d0a57615e
:101298006974696e670000000d0000004c6f7720cc
:1012a800436f6d70202a2a2a204641494c202a2a59
:1012b8002a2044656c74613a2025640d0a000000f8
:1012c8004c6f7720436f6d702044656c74613a20d1
:1012d80025640d0a000000004869676820436f6da7
:1012e80070202a2a2a204641494c202a2a2a2044aa
:1012f800656c74613a2025640d0a000048696768c6
:1013080020436f6d702044656c74613a2025640d2c
:101318000a00000053616d706c6520486f6c642092
:10132800504153530d0000004c6f772052535349de
:101338003a20256420566f6c746167653a20253021
:101348002e33660020506173730d0000202a2a2a6c
:10135800204641494c202a2a2a0d0000486967681e
:1013680020525353493a20256420566f6c746167a4
:10137800653a2025302e33660000000052333520b0
:101388004c6f6f706261636b3a20504153530d008c
:10139800523335204c6f6f706261636b3a202a2a92
:1013a8002a204641494c202a2a2a0d00436f766597
:1013b80072204465746563746f722020416e7920d1
:1013c8004b657920746f20636f6e74696e75650d57
:1013d800000000004c4544204f66660d00000000e8
:1013e800496e74727573696f6e3a2025640d0a0030
:1013f80053747261703a2025640d0a004c454420ec
:101408004f6e0d00537472617020776974682044c0
:1014180069736368617267653a2025640d0a000084
:10142800496e74727573696f6e20616e64205374af
:1014380072617020000000002a2a2a204641494c87
:10144800202a2a2a0d00000054657374204d616714
:101458006e6574730d0a416e79204b657920746f3f
:1014680020636f6e74696e75650d00000d0a2a2a77
:101478002a202020456e64206f66205465737420ee
:0c14880020202a2a2a0d0a0d0000c04670
:020000040000fa
:101494000023f0b506001500b1b007910393079936
:1014a4000b78002b00d10ce101235b420c9310abb1
:1014b40000240e9380230b940d940f930b5d002b4b
:1014c40001d0252b2ad1002c06d02200300002f0b6
:1014d40087fb079b1b190793079b1a78252a00d0c3
:1014e400e4e0013304930793022301219c4610276f
:1014f400079803782b2b1ad025d8202b1ad0232b0e
:101504001dd02a2b28d002f05bfa0d90079b1a7885
:10151400303a092a31d801330793f7e70134cde78c
:101524000b9b05930b4301300b930790e0e70423d7
:101534000b9a0fe00b9b0593059a08230ae00b9b7b
:1015440005933b43efe72d2bead0302bd9d16246ec
:101554000b9b05931343e6e72b6801301a1d1b68a8
:1015640007902a600d93002b07da0b9a5b420592d1
:10157400012205990d934a400b920b9bda0702d581
:10158400022293430b93079b1a782e2a0ed1002232
:10159400581c0c9207905a782a2a27d102330793b1
:1015a4002b681a1d1b682a6005930c9307a802f088
:1015b40083fb079b0700187802f06cfe692800d1b2
:1015c40082e034dc632800d1dbe01adc252800d17a
:1015d400e8e0612858d0049b01220793002352427b
:1015e4000c920b930d9300930232e5e002f0e8f9bc
:1015f4000c90079b1a78303a092ad7d801330793fd
:10160400f7e7642860d06728e5dc2a00390008a8d9
:1016140002f0fafb002800d1afe0079b0ba95a1c8b
:1016240007921b7808aa3000fff79cfa3de0702867
:1016340000d17de016dc6e2800d197e06f28cad176
:101644002b000022390008a801f070fa002800d10c
:1016540093e0079b08aa01330ba93000079302f01b
:1016640059fe22e0752840d078284fd07328b2d193
:10167400802f00d081e0079b2a6801330793131d54
:101684002b601268002388e02a00390008a802f0c1
:10169400bbfb002800d170e0079b0ba95a1c0792e2
:1016a4001b7808aa300002f037fe2418039b1c198b
:1016b400a34200dc82e04f22414b1a6001235b42cb
:1016c4000393039831b0f0bd2b000122390008a820
:1016d40001f02cfa002850d0079b08aa01330ba96b
:1016e4003000079301f0dcfadfe72b000022390019
:1016f40008a801f01bfa00283fd0079b08aa013371
:101704000ba93000079302f005fecee72b00002260
:10171400390008a801f00afa00282ed0079b5a1ca9
:1017240007921b7808aa0ba9300002f0f5fdbce76c
:101734002b000022f02108a801f0f8f900281cd0a1
:10174400079b099a01330793089b13430cd11d4f40
:10175400380002f0e1fc390002000b9b00930d9b62
:10176400300001f085fda0e77823dbe7039b390017
:101774001a1908a82b0001f0f3fd079b0133079306
:1017840094e7802ff9d1079b013307932b681a1d27
:101794001b682a6008aa137001230ba9300002f009
:1017a400bdfd82e7802fe8d10122079b0133079317
:1017b4000b9b049300930d9b0349d1e703946ee6be
:0c17c400bc050020fa42000000430000b9
:020000040000fa
:1017d000f0b40125ed070f005f405ad48b4200d1d1
:1017e000824205d950404240504059404b405940f8
:1017f0004e18760ddf187f0d3bd0741c640529d080
:10180000f41b352c26d80e0ddb022b43db0ac90254
:101810002943c9121700202c1ed2e741e24057404d
:10182000e3415a40a340e3405a4000248018594104
:101830000ad3b21c520521d0c207012f6241170002
:101840004008cb0718434908013636054208af4126
:1018500060417141f0bc7047203c06d01f00e74159
:10186000e3405f400024012a6741c0186141ebd387
:10187000dfe7002eeed129400020ebe701363105ed
:101880000020e7e7e742e5d10020c143090dc90484
:10189000e0e76b400e00871a9e4104d26e40c01be9
:1018a000b141d21973414e18df18ac0ae642e9d2b1
:1018b000760d7f0d31d0f41b362ccbd8b4460e0def
:1018c000db022b43db0ac9022943c90a012c32d8a7
:1018d00004d1d4075208df073a435b08ef0a644299
:1018e000904199411ed0002239424dd124194041e6
:1018f00049410124394204d1013400184941394297
:10190000fad06246a24204d9361b013e3605891937
:10191000a0e7f10ac90700209ce736429ad10020cf
:10192000002197e70200224394d0b842ded20100a2
:1019300020002024e3d1202c13dd203ce2411700bd
:10194000a240e2405740e3415a40a340e3405a409e
:10195000012fbf410137174300227c42984191413a
:101960000ce01700e741e2405740e3415a40a340f2
:10197000e3405a407c429041994100220f0303d238
:10198000013e241940414941013e36054708ac411a
:0819900050417141f0bc7047a9
:020000040000fa
:1019980070b56c4b9b7d002b19d06b4b9c6a694bc7
:1019a8005b8b9b0714d5684b2022ff219954013289
:1019b800fd399954644a2023d35c5bb2013300d1ca
:1019c8008de0614a2023d35c062b00d1a0e070bdd6
:1019d8005c4b5b8bdb0707d55b4b2022ff219954bf
:1019e8000132fd399954e5e7564b5b8b5b0707d508
:1019f800554b2022ff2199540132fe399954d9e7d9
:101a0800514a2023d35c5bb2032b47d0042b11d05f
:101a1800022bcfd11369002b05d0908880b200210a
:101a280001f0bcfdc6e7484b988880b2012101f05f
:101a3800b5fdbfe7444a936912699a420dd0424afc
:101a48009268d05c3f4928228854591c3d4ad36982
:101a5800002bfcd13c4b9961ace73b4b5b69002bfd
:101a68000ed0394b9b885b0001221343354a5362e1
:101a7800d369002bfcd1344a20330321d15499e790
:101a8800304a5168c0239b020b435360d369002b33
:101a9800fcd12d4a20330621d1548be72a4bd96932
:101aa8005b69013b8b420cd0264ad369002bfcd1e1
:101ab800254bda68234d2820285c50540131d96120
:101ac80078e7204a5068e023db0203435360d36978
:101ad800002bfcd11c4a20330620d054e4e72023f5
:101ae8000021d154174a5168c0239b020b4353600d
:101af800d369002bfcd1134b83221a76124b5b6af5
:101b0800002b00d163e7104b5b6a200098475ee723
:101b18001300002220215a5401315a54094b8332b0
:101b28001a761900533a4b8b1340102bfbd1064bf6
:101b38005b6a002b00d14ae7034b5b6a2000984799
:0c1b480045e7c0460008004210050020e0
:020000040000fa
:101b540008d1002806d1f54204d801d3002a01d1c6
:101b64006d0d09d10020c143090dc904f0bdf9d19f
:101b74001242f7d1640df5d00020c143490549084c
:101b8400a6e000206146f0bdf0b50127ff070e0076
:101b94005e403e40b446be0a4c18dd18f442d7d22b
:101ba400f542e4d2640decd06d0dead06419c9029b
:101bb4003943460dc0023143db023b43db0a10b418
:101bc4008e4685b297b26f43140c6c433e0ca41935
:101bd400260c2404bfb227439cb26c43a419190ced
:101be4006943250ca4b249190d04090c6419000cad
:101bf40095b245433e0c76193743bfb2360c150ceb
:101c04004543ad19a6b2240cad192e0437432e0c4e
:101c140036199db24543ad19acb22e0c89191d0c71
:101c240045436d182e04290c3443704680b295b296
:101c340045433e0c76193743bfb2360c150c454369
:101c4400ad19a6b2ad19240c2e0437432e0c361947
:101c54009db24543ad19acb22e0c89191d0c4543f8
:101c64006d182e043443290c75462d0c90b268432c
:101c74003e0c80190604bfb23e43070ca0b23f18c5
:101c8400120c6a43d019020c80b2240ca4189ab224
:101c94006a43121914042043120c89181b0c6b4359
:101ca400c91810bc01273d05294203d1b61940418a
:101cb4004941013cff077d0d013d641b0bdb6d00b9
:101cc400ac4209da240500254208be41684161415d
:0a1cd40066463143f0bd54e74ee7c9
:020000040000fa
:021cde0070474d
:020000040000fa
:101ce000594b0e225a6119000d3acb681a42fcd0aa
:101cf000554b00229a6105211961544b03319971aa
:101d000007395971524b1a63524ada621800373157
:101d10000422435c1342fcd14d4a34230121d154a7
:101d2000100037310822435c1342fcd1484a282373
:101d30000221d154100036310222435c1342fcd1ff
:101d400043483c210322435c1340032bfbd1404b0f
:101d500000221a8319000132ff32cb681342fcd0f3
:101d60003d4b1b689b0e9b02802292001343384a16
:101d7000d3611100920dcb681342fcd0344b022288
:101d80001a831900d201cb681342fcd0334b344a7a
:101d90001a62190004224b681a42fcd12f4a8c2384
:101da0004021d15010004c31402243581a42fcd0ff
:101db0002a4ac8234021d15010008831402243587c
:101dc0001a42fcd0254acc234021d15010008c313e
:101dd000402243581a42fcd0204ad0234021d150ff
:101de00010009031402243581a42fcd01b4ad423a1
:101df0004021d15010009431402243581a42fcd067
:101e0000164ad8234021d15010009831402243581f
:101e10001a42fcd0114af8234021d1501000b831a9
:101e2000402243581a42fcd00c4a80235b004021d8
:101e3000d15010001900402243581a42fcd0044be4
:101e400000221a757047c046001000400004004090
:101e5000000c0040700b0b00206080000018004058
:041e60000701010075
:020000040000fa
:101e6400680500201c0000000000000000010020a4
:101e7400c000000000000000100500202c0000003d
:101e840000000000c2050020010000000000000066
:101e94003c0500202c00000000000000c0010020d0
:101ea4000001000000000000100400208000000079
:101eb40000000000000000200001000000000000fd
:101ec400900400204000000000000000c002002038
:101ed4000001000000000000d004002040000000c9
:101ee40000000000940500200c0000000000000029
:101ef400c00500200200000000000000c30500200f
:101f04000300000000000000840500201000000011
:101f140000000000a80500200400000000000000ec
:101f2400c60500200100000000000000c7050020d5
:101f3400010000000100000010000000ec0500207a
:101f44000100000001000000f0000000ac050020ca
:101f54000800000000000000e80500200400000064
:101f64000100000032000000b4050020040000005d
:101f740000000000c003002050000000000000002a
:101f8400c80500202000000001000000010000003e
:101f9400030000000000000000000000000000003a
:101fa4000000000000000000a0050020a0050020a3
:101fb4000800000000000000b80500200800000030
:101fc4000000000000000000000000006666666675
:020000040000fa
:101fd40070b5504b586a504b9b7d002b54d04e49e2
:101fe4004c68072214404b4b5a699d699e680b7ece
:101ff4005b0757d5896a474bdb68934252d9002c5b
:1020040043d1444b5b6899540132434b1b7edb073d
:1020140016d5414b012119753e4b9b68ab4256d9ed
:102024003c4b1b68595d3c4b99620135394b1b692c
:10203400002b01d1b54262d0364bdb68934262d0ab
:10204400344b5a619d61344b1b7e9b0715d5334b32
:102054001b78002b18d02f4bdb68934211d12d4bea
:1020640000221a772c4907240c752c490a701b6a24
:10207400002b09d0274b1b6a9847284b1b78002b51
:1020840002d0254b02229a7570bd224b5b68540026
:10209400e1520132204b1b7edb07d1d51e4b0121bf
:1020a400197508e01c4b1b7edb07c9d51a4b0121af
:1020b4001975002cb0d0174b9b68ab4213d9154b44
:1020c4001b686900c95a144b99620135aee7114b7c
:1020d4001b69002baad0104bff2199620d490b6993
:1020e400013b0b61a2e70b4b1b69002b9ed00a4bf3
:1020f4000b49996207490b69013b0b6196e7074b52
:10210400012119709ce7044b01219975033119755c
:1021140096e7c0463c05002000100042c20500209e
:04212400ffff0000b9
:020000040000fa
:10212800f0b5de4657464e464546e0b583b0804694
:1021380000296ed00024384f0726384b9c469b4612
:102148009946009108e03648415549468a60621c24
:102158000134009991424cd97a683240012a16d04c
:102168009d68da6892466a1c19698a4289410a4060
:1021780092453fd04146095d786830400128e2d158
:102188006d0027484155013500214155dde762467c
:102198009568d26892466a1c614609698a428941f3
:1021a8000a40924526d0610001204044405c00026c
:1021b80082464046415c5046014301917868304070
:1021c800012809d0694609798a4615495046485573
:1021d80059468a60621cbbe7690068460079104d61
:1021e800aa4668540d0001350199090a504641551f
:1021f800eee7140001f0e8fe002802d0064b0122a9
:102208009a75200003b03cbc90469946a246ab465e
:10221800f0bd0c00eee7c046000c00429004002020
:042228000000002092
:020000040000fa
:10222c00f0b5de4657464e464546e0b583b080468f
:10223c0000296ed00024384f0726384b9c469b460d
:10224c009946009108e03648415549468a60621c1f
:10225c000134009991424cd97a683240012a16d047
:10226c009d68da6892466a1c19698a4289410a405b
:10227c0092453fd04146095d786830400128e2d153
:10228c006d0027484155013500214155dde7624677
:10229c009568d26892466a1c614609698a428941ee
:1022ac000a40924526d0610001204044405c000267
:1022bc0082464046415c504601430191786830406b
:1022cc00012809d0694609798a461549504648556e
:1022dc0059468a60621cbbe7690068460079104d5c
:1022ec00aa4668540d0001350199090a504641551a
:1022fc00eee7140001f082fe002802d0064b01220a
:10230c009a75200003b03cbc90469946a246ab4659
:10231c00f0bd0c00eee7c04600040042d0040020e3
:04232c00400300204a
:020000040000fa
:1023300030b5394b394a1a60802212011a610122e4
:1023400042215a5401315a5401315a5401315a54dc
:1023500001315a5401315a5401315a5401315a54fd
:1023600001315a5400214b20195401301a540130c4
:102370001a540130195401301a5401301a540130e2
:102380001a5401301a5401301a5401301a540130d1
:10239000195401301a5401301a54013019540130c3
:1023a0001954023019544a3831241855013418553b
:1023b0000134185511303425585501355a55013519
:1023c000585501355955013558550135595501357f
:1023d0005955013558551a301954013019544330a4
:1023e0000f4d1d5042301a540130195405301a5403
:1023f00001301a5401301a5401301954c838d62506
:10240000585501355a55263d5a55b3329c54013220
:1024100098540632995430bd002800400048200be3
:042420000808400068
:020000040000fa
:10242400f0b5d6464f464646c0b50426354da846b7
:10243400a946344b9a465ee04a46126a002a44d0c2
:10244400796a3b6a01209847bb6a01333a6b93422d
:102454009241134039e05246926a5200e0b22a494e
:1024640088540132240a8c543fe001f0a1fd254b2d
:102474001b6a002bddd0234b596a3c23214ad35cd1
:10248400002b06d0936b9842d3d3136a002098474d
:10249400cfe71c4b9b6b9842cbd11a4b1b6a002095
:1024a4009847c6e78423db051b7e334225d084236b
:1024b400db051c8da4b2ab6a01332a6b93429241b3
:1024c40013404246d26a9a42b6d00e4ad26a9a421f
:1024d400e8d08422d205516807220a40012abad0e2
:1024e400084a926ae4b208498c54064a9362342337
:1024f400d35c002bb9d1034fd4e71cbc904699465a
:0c250400a246f0bd10040020c001002021
:020000040000fa
:10251000f0b5d6464f464646c0b50426344da846cb
:10252000a946334b9a465be04a46126a002a42d0db
:10253000796a3b6a01209847bb6a01333a6b934240
:102540009241134037e05246926a5200e0b2294964
:1025500088540132240a8c543ce001f047fd244b9e
:102560001b6a002bddd0224b596a3c23204ad35ce6
:10257000002b06d0936b9842d3d3136a0020984760
:10258000cfe71b4b9b6b9842cbd1194b1b6a0020aa
:102590009847c6e7184b1b7e334223d0164b1c8d41
:1025a000a4b2ab6a01332a6b934292411340424674
:1025b000d26a9a42b8d00e4ad26a9a42ead00e4af9
:1025c000516807220a40012abdd0094a926ae4b242
:1025d00008498c54064a93623423d35c002bbcd147
:1025e000034fd7e71cbc90469946a246f0bdc046b3
:0c25f0009004002050040020000c004269
:020000040000fa
:1025fc00f0b5d6464f464646c0b50426344da846df
:10260c00a946334b9a465be04a46126a002a42d0ee
:10261c00796a3b6a01209847bb6a01333a6b934253
:10262c009241134037e05246926a5200e0b2294977
:10263c0088540132240a8c543ce001f0edfc244b0c
:10264c001b6a002bddd0224b596a3c23204ad35cf9
:10265c00002b06d0936b9842d3d3136a0020984773
:10266c00cfe71b4b9b6b9842cbd1194b1b6a0020bd
:10267c009847c6e7184b1b7e334223d0164b1c8d54
:10268c00a4b2ab6a01332a6b934292411340424687
:10269c00d26a9a42b8d00e4ad26a9a42ead00e4a0c
:1026ac00516807220a40012abdd0094a926ae4b255
:1026bc0008498c54064a93623423d35c002bbcd15a
:1026cc00034fd7e71cbc90469946a246f0bdc046c6
:0c26dc00d0040020c002002000040042d6
:020000040000fa
:1026e800f0b5060085b00f0015001c008b4265d8b8
:1026f80001d1824262d82100280001f0fffc390094
:102708000090300001f0fafc009b21001b1a1a000f
:102718002800039301f0e6fc00900191019bbb4265
:1027280046d802d1009bb34242d8009b019c039a31
:1027380001200021f61aa74101f0d4fc039b002bcd
:102748002fd0019b009adb0754081c43019b5d08ae
:10275800039b9c46bd422ed801d1b4422bd83200ef
:102768003b00121bab41012692185b410027b618ab
:102778005f4101235b429c446346002bead18019e8
:102788007941039a04000d003000390001f09efce5
:10279800039a06000f0001f0a5fc241a8d412000c1
:1027a80029000a9b002b01d01e605f6005b0f0bdb8
:1027b80000200021c2e7b6197f41dae70020002196
:0227c800efe739
:020000040000fa
:0227ca00fee728
:020000040000fa
:1027cc00f0b5ce46474680b583b00125324ca046c5
:1027dc008422d205304eff23994616e058002f4f25
:1027ec003f5cbc466f466146b97101302b49085cb1
:1027fc00f87101331ae06b4606331b8849460b40cf
:10280c001385254b1b7d002b20d1137e2b423ed0f4
:10281c00a068e368984236d05768072038400128f2
:10282c00dcd01e48c75c684687710133306983422f
:10283c00804103401848c360506807230340012bb4
:10284c00d9d16b4606331b881385dae701f078fc87
:10285c00114b1b68002bbbd0434659681b7f002bc8
:10286c0008d00d4b9b699842b2d30b4b1b680320cd
:10287c009847ade7084b9b699842a9d1064b1b685a
:10288c0003209847a4e78423db0501221a7503b0c3
:10289c000cbc90469946f0bd10040020400200206c
:020000040000fa
:1028ac00f0b5ce46474680b583b00125314ca046e5
:1028bc00314a304eff23994616e058002f4f3f5cab
:1028cc00bc466f466146b97101302c49085cf87101
:1028dc0001331ae06b4606331b8849460b401385bf
:1028ec00244b1b7d002b20d1137e2b423dd0a068a6
:1028fc00e368984236d05768072038400128dcd06e
:10290c001e48c75c68468771013330698342804139
:10291c0003401848c360506807230340012bd9d1ea
:10292c006b4606331b881385dae701f013fc114b59
:10293c001b68002bbcd0434659681b7f002b08d06a
:10294c000c4b9b699842b3d30a4b1b6803209847e6
:10295c00aee7084b9b699842aad1064b1b68032033
:10296c009847a5e7044b01221a7503b00cbc90469e
:10297c009946f0bd90040020000c0042000000209d
:020000040000fa
:10298c00f0b5ce46474680b583b00125314ca04604
:10299c00314a304eff23994616e058002f4f3f5cca
:1029ac00bc466f466146b97101302c49085cf87120
:1029bc0001331ae06b4606331b8849460b401385de
:1029cc00244b1b7d002b20d1137e2b423dd0a068c5
:1029dc00e368984236d05768072038400128dcd08d
:1029ec001e48c75c68468771013330698342804159
:1029fc0003401848c360506807230340012bd9d10a
:102a0c006b4606331b881385dae701f0adfb114bdf
:102a1c001b68002bbcd0434659681b7f002b08d089
:102a2c000c4b9b699842b3d30a4b1b680320984705
:102a3c00aee7084b9b699842aad1064b1b68032052
:102a4c009847a5e7044b01221a7503b00cbc9046bd
:102a5c009946f0bdd0040020000400424003002041
:020000040000fa
:102a6c00f0b40125ed070c005c402c40a446ae0ae6
:102a7c004c18df18f4423dd2f74245d2640d4cd0cd
:102a8c007f0d3cd0e41bc9022943cf0adb022b4348
:102a9c00db0a0600b61a9f4104d2013cb6197f41ed
:102aac00b6185f416812800d241838dd0018844276
:102abc0025d8e80c0021b6197f41b61a9f4103d3e3
:102acc0040414941f7d304e0b6185f410018494131
:102adc00f1d32405b6197f41b61a9f4105d337436c
:102aec00c20717430022012f504161416246114336
:102afc00f0bc70470cd100280ad1f74208d2002054
:102b0c00c143490d0905f1e7002a01d1f74206d06e
:102b1c000020c143090dc904eae77f0df8d000205d
:042b2c006146e5e732
:020000040000fa
:102b300010b588293cd015dc81294dd003dc8029d3
:102b40004ad0002010bd822911d08429f9d11968fa
:102b5000002a26d00a1d1a6000228b5e0360db1754
:102b6000436011e0a02930d010dc9029e9d1196828
:102b70000724002a2ed00919a1430a0008321a603e
:102b80000b684c68036044600120dbe7c02901d07a
:102b9000f029d6d11a68111d19601368036000234b
:102ba000dee70c1d1c600b689bb203604260ebe724
:102bb0001968002a04d00a1d1a600023cb56cde7fd
:102bc0000c1d1c600b68dbb2efe71a68111d196061
:102bd0001368c3e70731cfe71968002a03d00a1d3d
:0e2be0001a600b68bae70c1d1c600b68dde77d
:020000040000fa
:022bee0070472e
:020000040000fa
:102bf0004b005b0d264af0b55c1e944238d8254a3e
:102c00009e1825d4332e22dc234a9b1827d4234a2e
:102c1000da400700214b9743f3403c000f0002408d
:102c20009f4319403d000a430fd0002f0dda2023a7
:102c30005b42f11824d480204003c8400200802168
:102c40004903f1400b00a4185d4120002900f0bdac
:102c50000020002901db0021f9e71149f7e72022d4
:102c60000e4b921b934001225242f2401a43d0e78e
:102c7000002becd10022c90fcb0710001900e6e7aa
:102c800020218020891b400388400200d7e7c046ee
:102c9000fd07000001fcffffe1fbffffffff0f004e
:042ca0000000f0bf81
:020000040000fa
:102ca400f0b54b6889b005930b6807009c46079301
:102cb400cb680c008e68049310685168cd0f44d023
:102cc4000b000200002150429941059b002b08dbb8
:102cd4000222634693430793002d02d1079b5a07b0
:102ce4002ad5731e07aa02920a22009301920b00ae
:102cf4000200200000f0f9fa002d02d1079b5a07c8
:102d04001ed501382d23002d00d1023b049a135403
:102d140023695a1e049b121a1918079b3800009342
:102d2400330000f0a5fa7b68db0503d5636898429d
:102d340000da180009b0f0bd1b07db0ff31ad1e766
:102d44001b07e5d501382023e0e7059b002bbfdafc
:022d5400c4e7d2
:020000040000fa
:022d5600fee796
:020000040000fa
:102d5800002941d010b4041c4c40a4460123002291
:102d6800002900d54942002800d5404288422cd38a
:102d780001242407a14204d2814202d209011b0185
:102d8800f8e7e400a14204d2814202d249005b0084
:102d9800f8e7884201d3401a1a434c08a04202d3ec
:102da800001b5c0822438c08a04202d3001b9c082d
:102db8002243cc08a04202d3001bdc08224300288f
:102dc80003d01b0901d00909e3e7101c6446002c55
:102dd80000d5404210bc704701b5002001f09efab2
:102de80002bdc0460029f7d003b5fff7b3ff0ebcfc
:082df8004243891a1847c04646
:020000040000fa
:102e0000f0b5d6464f464646c0b582461e4ad36afe
:102e1000956a002933d0ab4234d0040001201b4a0c
:102e200094469046184e12e04246d25c9146524675
:102e3000013a4f4617540133326b9342924113408b
:102e4000884214d2421c0234ab4211d01000104a06
:102e5000576807223a40012ae6d15a006746bf5c0c
:102e6000277001326746ba5c62700133e4e71d00e7
:102e7000054bdd621cbc90469946a246f0bd1d0084
:102e80000800f5e70020f3e790040020500400203c
:042e9000000c0042f0
:020000040000fa
:102e9400f0b5d6464f464646c0b582461e4ad36a6a
:102ea400956a002933d0ab4234d0040001201b4a78
:102eb40094469046184e12e04246d25c91465246e1
:102ec400013a4f4617540133326b934292411340f7
:102ed400884214d2421c0234ab4211d01000104a72
:102ee400576807223a40012ae6d15a006746bf5c78
:102ef400277001326746ba5c62700133e4e71d0053
:102f0400054bdd621cbc90469946a246f0bd1d00ef
:102f14000800f5e70020f3e7d0040020c0020020f9
:042f24000004004263
:020000040000fa
:102f280010b51f4a137801210b43137011000122b9
:102f38004b681a42fcd11a491a4bcb6180239b0576
:102f48000b62194b0b61194b10221a819a820220cd
:102f58001884013098850130188740301a520c3097
:102f680006241c520c3001341c520c301a520c30fe
:102f78001a520c301a520c301a520c301a520c30a9
:102f88001a520c301a52ac32a13898520b780222dd
:102f980013430b7002224b681a42fcd110bdc04685
:102fa8000024004000220222dc80000000010020f2
:020000040000fa
:102fb80070b5bff35f8f62b61e4bc02189005a58a7
:102fc8001202120ac024240622435a5008221a6008
:102fd800c22292009858ff26b043c0252843985033
:102fe800802149001960995813480840c0210902f6
:102ff8000143995080218900196099580f48084069
:10300800c0210904014399508021c90019609958c9
:103018000902090a21439950802212011a60c3212a
:1030280089005a58b2432a435a50802252011a60e2
:1030380070bdc04600e100e0ff00ffffffff00ff9a
:020000040000fa
:103048008423db051e4a1a601e4a9a81c022920216
:103058005a601a00d369002bfcd18422d205136868
:1030680002210b431360d369002bfcd1164b0022bd
:103078001a629a62da6234215a5408315a549a63ad
:103088000021da871a609a60da60197519779a61ef
:103098008423db055a6807231340012b0ad00a4b07
:1030a80080221a631a618423db0580229a757c3a90
:1030b8009a757047044b40221a631a61f3e7c046b9
:0c30c800040112402bf6ffff1004002052
:020000040000fa
:1030d4001e4b1f4a1a601f4a9a81c02292025a60ec
:1030e4001a00d369002bfcd1184a136802210b4340
:1030f4001360d369002bfcd1174b00221a629a6229
:10310400da6234215a5408315a549a630021da8716
:103114001a609a60da60197519779a610b4b5a68cc
:1031240007231340012b0ad00b4b40221a63920051
:103134001a61064b80229a757c3a9a757047064b41
:1031440020221a6360321a61f3e7c046000c004281
:0c315400040112402bf6ffff9004002045
:020000040000fa
:10316000002934d00123002210b488422cd301243a
:103170002407a14204d2814202d209011b01f8e7cf
:10318000e400a14204d2814202d249005b00f8e788
:10319000884201d3401a1a434c08a04202d3001bb4
:1031a0005c0822438c08a04202d3001b9c082243e7
:1031b000cc08a04202d3001bdc082243002803d025
:1031c0001b0901d00909e3e7101c10bc704701b5c9
:1031d000002001f0a7f802bd0029f8d003b5fff7e1
:0c31e000c1ff0ebc4243891a1847c046cc
:020000040000fa
:1031ec001d4b1e4a1a601e4a9a81c02292025a60d6
:1031fc001a00d369002bfcd1174a136802210b4328
:10320c001360d369002bfcd1164b00221a629a6210
:10321c00da6234215a5408315a549a630021da87fd
:10322c001a609a60da60197519779a610a4b5a68b4
:10323c0007231340012b09d00a4b80221a631a6111
:10324c00054b80229a757c3a9a757047054b402243
:10325c001a631a61f4e7c0460004004204011240ec
:08326c002bf6ffffd004002047
:020000040000fa
:10327400f0b51d00012389b014000e9a06001a400f
:103284000391029201d1a5420ad822000399300089
:1032940000f0a6fca54203d82500280009b0f0bd23
:1032a4002f1b01973a00102f00d91022202104a8c7
:1032b40000f09aff019b0f2b0ed80f2204a93a406d
:1032c400300000f08dfc029b002be6d12200039914
:1032d400300000f085fce0e7102204a9300000f083
:0a32e4007ffc019b103b0193e4e71f
:020000040000fa
:1032ee00f7b5040019000a9fe368666800933b680f
:1032fe00100001932369013b1c00002e00da012609
:10330e000022009dea5435000123002c03dc002b23
:10331e001cd02000febd02000a4309d1002d07dc9f
:10332e00089a921b5219002af1dd019a9207eed5e6
:10333e00099b099adb1700f05efb8c460099013c55
:10334e00130030320a55013d6146dee710233a681c
:06335e009a433a60dde72e
:020000040000fa
:1033640010b584291fd007dc812915d0822922d0e9
:10337400802911d0002010bd90291cd008dc882998
:10338400f8d119680c1d1c600b6803601a7010e0fa
:10339400a02901d0c029edd119680c1d1c600b684f
:1033a40003601a6005e019680c1d1c600b6803605b
:1033b4001a800120dfe719680c1d1c600b6803608c
:0833c4001a60d2175a60f4e709
:020000040000fa
:1033cc004b1801225205da4217d25b0d0722d201ab
:1033dc009b1a0fd9ff2b13d2db05ca0fd20713434d
:1033ec000903020d1143490ac200524100d90131af
:1033fc00c8187047c80fc007704706d1002804d101
:10340c00c80f0002ff30c00570470123db070a001c
:10341c00c900400f084398431a4010435b0a1843f5
:02342c007047e7
:020000040000fa
:02342e00fee7b7
:020000040000fa
:10343000f8b50024144d154e03e077610134102ccb
:1034400020d063001b199b00eb181b89dbb2e1b293
:103450008b42f3d173690127a7401f42eed063006e
:103460001b199b0008495b58002be6d0080063003d
:1034700019198900411849681b199b001b5808003d
:103480009847dae7f8bdc04600010020002400405c
:020000040000fa
:10349000144b01221a601a00d369002bfcd1114b86
:1034a000802252005a601a00d369002bfcd10d4bc8
:1034b000e822da600c4a1a601a00d369002bfcd1aa
:1034c000084b10225a831a00d369002bfcd1074bfa
:1034d000002221215a5401395a54024b83329a75e1
:1034e0007047c0460008004216001000100500207a
:020000040000fa
:1034f00000230e4a10b513600d4a13600d4a136085
:103500000d4a13600d4a13600d4a53621361013373
:10351000936000f0b1fe00f044f80a4c0a4b9c4264
:1035200000d310bd08cc9847f8e7c046b805002086
:10353000cc030020c8030020c0030020c4030020e7
:0c354000d0030020bc000000c000000010
:020000040000fa
:10354c0010b58423db059b7d002b1dd08422d20576
:10355c00137edbb2927d52b2002a16db8422d20596
:10356c00137edbb2927dd20703d5db0701d5fff7c3
:10357c0027f98422d205137edbb2927d520703d544
:10358c005b0701d5fef748ff10bd5bb2002be5daf7
:06359c0000f0a8f8e2e7d0
:020000040000fa
:0235a200704770
:020000040000fa
:1035a40010b5114b00229a61da61104b83321a76fe
:1035b4005a680f4c22405a601a00d369002bfcd180
:1035c40000290cd0084a20330324d4544000084373
:1035d400064b58621a00d369002bfcd110bd024a75
:1035e40020230424d454f1e71005002000080042ed
:0435f400fffffbffdb
:020000040000fa
:1035f80010b5134b9b7d002b1ad0114a137edbb2fa
:10360800927d52b2002a14db0d4a137edbb2927d02
:10361800d20703d5db0701d5fff744f9084a137e23
:10362800dbb2927d520703d55b0701d5fef76cff2d
:1036380010bd5bb2002be7da00f07cf8e4e7c04687
:04364800000c004230
:020000040000fa
:10364c0010b5134b9b7d002b1ad0114a137edbb2a5
:10365c00927d52b2002a14db0d4a137edbb2927dae
:10366c00d20703d5db0701d5fff78af9084a137e89
:10367c00dbb2927d520703d55b0701d5fef7b8ff8d
:10368c0010bd5bb2002be7da00f078f8e4e7c04637
:04369c0000040042e4
:020000040000fa
:1036a000114b01221a7019000b8c1342fcd10f4be5
:1036b0001b681a02e021c9000a409b065b0f1a43ef
:1036c000094b9a8502225a702d325a732a3a9a70ff
:1036d000043a1a8100225a8107229a711a00138c27
:1036e0009bb2002bfbd17047000c00432060800090
:020000040000fa
:1036f00010b58423db055b8b0722134000d110bd7e
:103700000d4ad3878423db0580221a76793a5a83bf
:103710001b7e5b0706d58423db0504211a8d1a7ee8
:103720000a42fbd1044b1b6a002be8d0024b596aba
:0c3730001b6a02209847e2e7100400200a
:020000040000fa
:10373c0010b5104b5b8b0722134000d110bd0e4a05
:10374c00d3870c4b80221a76793a5a831b7e5b07ff
:10375c0005d5084b04211a8d1a7e0a42fbd1064b63
:10376c001b6a002bead0044b596a1b6a022098474b
:0c377c00e4e7c046000c0042900400206e
:020000040000fa
:1037880010b5104b5b8b0722134000d110bd0e4ab9
:10379800d3870c4b80221a76793a5a831b7e5b07b3
:1037a80005d5084b04211a8d1a7e0a42fbd1064b17
:1037b8001b6a002bead0044b596a1b6a02209847ff
:0c37c800e4e7c04600040042d0040020ea
:020000040000fa
:1037d40010b5114b06225a6000f0bafafef7a6fda6
:1037e400fef77cfafff774fcfff750fe00f060fd73
:1037f400fff7fafcfef771fafff724fc00f06afb0e
:1038040000f05cf9fff74afffff78cfb00f0b0f91a
:0c381400fff7d0fb10bdc0460040004193
:020000040000fa
:1038200010b50e4b0e4a934207d30e48016800298b
:1038300007d14368002b04d110bd0021197001335a
:10384000f1e704008368084a9bb20c349b009b5844
:1038500042682000984780002018e7e70000002019
:0c38600000000020641e00009c410000dd
:020000040000fa
:10386c0010b5064c2378002b07d1054b002b02d04a
:10387c00044800e000bf0123237010bd6805002040
:10388c000000000000000000044b10b5002b03d01a
:10389c000349044800e000bf10bdc0460000000012
:0838ac006c0500200000000083
:020000040000fa
:1038b40010b50a4b98470a4b9847fff7afff094bdf
:1038c400ff229343084a9360084b9847084b984754
:1038d400084b9847fcf7fefbfee7c046ef2b0000c1
:1038e400ef2b00000000000000ed00e0f1340000c8
:0838f400ef2b0000ef2b000098
:020000040000fa
:1038fc0041008c46012212068a420bd80909382352
:10390c001b06c918c30fdb07194340076346da428d
:10391c0004d27047c10fc9070020704703d1382368
:10392c001b06c918704738231b06c9180122d2047c
:04393c00114370477c
:020000040000fa
:1039400030b401256d054c00e54215d85c00e54218
:1039500012d80c001c436400044314430fd005d25a
:1039600082428b418041013030bc70479042994186
:103970008041013030bc7047002030bc70470120ce
:0439800030bc7047a0
:020000040000fa
:1039840070b50d4b5e681b68db0714d50b4b5843b1
:10399400094b9b6800280ed00021074d06e0741cdb
:1039a400a41ae318c9181300884204d9aa689a42d1
:1039b400f5d89b1af6e770bd10e000e080bb00006c
:020000040000fa
:1039c400030010b51a78202a0dd0110009390429f2
:1039d40009d900212b2a02d02d2a01d1013101332a
:1039e40000200a2404e00133ece760430133801a29
:1039f4001a78303a092af8d9002900d1404210bd7a
:020000040000fa
:103a0400002b11d1002a0fd1002900d1002802d0a7
:103a14000021c943081c07b4024802a140180290bf
:103a240003bdc046fd08000003b4684601b5029812
:103a3400fef758fe019b9e4602b00cbc7047c04680
:020000040000fa
:103a440030b401256d054c00e54215d85c00e54213
:103a540012d80c001c436400044314430cd005d258
:103a640082428b418041404230bc70479042994130
:0e3a74008041404230bc7047002030bc70479b
:020000040000fa
:103a820030b401256d054c00e54215d85c00e542d5
:103a920012d80c001c436400044314430cd005d21a
:103aa200904299418041404230bc704782428b41f2
:0e3ab2008041404230bc7047002030bc70475d
:020000040000fa
:103ac0000b4b00221a621a779a60da60094b802247
:103ad00092025a601a00d369002bfcd1054b3b229d
:103ae0001a73054a1a601a00d369002bfcd170477b
:0c3af0003c050020001000420e002000e9
:020000040000fa
:103afc0070b50d4a56681368db0713d543001818c8
:103b0c00000193680ed00021150006e0741ca41a65
:103b1c00e318c9181300884204d9aa689a42f5d848
:0c3b2c009b1af6e770bdc04610e000e0f8
:020000040000fa
:103b38001c2101231b04984201d3000c10391b0ad5
:103b4800984201d3000a08391b09984201d3000999
:103b5800043902a2105c40187047c04604030202f0
:0c3b68000101010100000000000000004d
:020000040000fa
:103b74000c4b01221a701a0001231178194202d049
:103b840091680b42f9d1074b02225a709a811a7834
:103b940002210a431a70190002228b681a42fcd1ce
:083ba4007047c04600300042ea
:020000040000fa
:103bac0070b50c4d20242d5d0024002d01d020007b
:103bbc0070bd084ca080e360049b6361a16022612e
:103bcc000023a37023702122a3540021fff7e4fcef
:083bdc000124ece710050020b4
:020000040000fa
:103be400436870b50400d80510d52569954200d9fd
:103bf40015002a00606900f0d9fa226963695b192b
:103c0400551b0022636125611a7070bddb06fcd46c
:083c1400200000f06bfbf8e753
:020000040000fa
:103c1c0013b50b006a46d41d5a68c1b22170d20587
:103c2c0005d55a69c0b2541c5c61117016bd0122d5
:103c3c002100180000f056fb002801d02078f5e791
:063c4c0001204042f2e7f6
:020000040000fa
:023c52007047b9
:020000040000fa
:103c540010b50b4c2023e45c0023002c01d0180089
:103c640010bd074b9880dc605c6199601a619c70a0
:103c74001c7021229c540021fff792fc0123eee7e3
:043c84001005002007
:020000040000fa
:103c8800084a136801331360074a12689a1a0749e9
:103c980009688a4205d3044a1360054b80225204fe
:103ca800da617047b0050020ac050020e805002067
:043cb80000280040a0
:020000040000fa
:103cbc00f0b5050000200a4a4400a65c002e02d193
:103ccc0012195078f0bd296801300f78c0b2b74294
:103cdc0003d112190131507829600a28ebd9f1e788
:043cec00344100005f
:020000040000fa
:103cf000f4464a1805d200f074f801d5c017400800
:103d0000604701235b05d34206d200f06af801d573
:103d10000120c0074042604701d10042f5d0d017d2
:043d200040087047a0
:020000040000fa
:103d240030b583b000f060f9002801d103b030bd94
:103d340000f05af9c5b2002df8d0002401216b46d9
:103d4400d81dfff75bf80134e4b2a542f6d1ede7e4
:020000040000fa
:103d54008023db0500221a819a7901210a439a7192
:103d64009b7803221340022b08d08023db05013a01
:0e3d74009a701900013a8b791342fcd0704707
:020000040000fa
:103d820070b5140016000a004e430d00511e8a4100
:103d92005242144001003200180000f0a8fa864294
:0e3da20003d02900fff7dbf90400200070bdfc
:020000040000fa
:103db00070b4012676054c005d00e6420cd8ee4258
:103dc0000ad825430543154303d0994204d19042b4
:0e3dd00002d1012070bc7047002070bc70470b
:020000040000fa
:103dde004a0010d2520d03231b02ff33d21a0ad40b
:103dee0052421f3209d4400dc90208430123db079a
:0e3dfe001843d040704700207047d017704720
:020000040000fa
:103e0c00002380290fdb812901dd83290bd10721b8
:103e1c00136807338b431900083111601a685b680b
:0a3e2c000260436001231800704794
:020000040000fa
:103e380030b543001b189b00064ce3181b899bb246
:103e4800834200d030bd43001d18ad0029516019d0
:083e58004260f7e700010020c1
:020000040000fa
:103e6000074a2023d35c0120002b07d1054b588b38
:103e7000302318401038431e9841c0b27047c046e6
:083e80001005002000080042bb
:020000040000fa
:103e880010b5074b5868074a12689a6801329a6059
:103e98001b68002b02d0024b1b68984710bdc04618
:083ea8009405002010e000e089
:020000040000fa
:103eb00010b5084c2368196800f020f80123002889
:103ec00005db23680a20196800f020fac30f584266
:083ed00010bdc046e40500200e
:020000040000fa
:103ed800054a00231360936004495160062111606c
:103ee800034a93601360704710e000e0ff52070038
:043ef800940500200d
:020000040000fa
:103efc0070b50e00050000f00bf933000400020051
:103f0c0001212800fff737ff001b431e9841404258
:023f1c0070bd76
:020000040000fa
:103f20000fb407b5054b04aa1b6802ca18680192b2
:103f300000f0c4f803b008bc04b01847e405002042
:020000040000fa
:103f40009d2201000ad002d4013a4900fcd5d205d5
:0e3f5000080a0906494100d301295041704773
:020000040000fa
:103f5e00002310b5934206d103201840421e904113
:0e3f6e009b08c01810bdc45ccc540133f2e7b0
:020000040000fa
:103f7c00054a137e02210b43137611008022d200d6
:0c3f8c000b8c1342fcd17047000c00436a
:020000040000fa
:103f9800054b9868db68984201d3c01a7047024afb
:0c3fa80012691018c01af9e7100400207c
:020000040000fa
:103fb400054ad36a906a834201d8c01a7047024afc
:0c3fc400126b1018c01af9e7100400205e
:020000040000fa
:103fd000054b9868db68984201d3c01a7047024ac3
:0c3fe00012691018c01af9e790040020c4
:020000040000fa
:103fec00054ad36a906a834201d8c01a7047024ac4
:0c3ffc00126b1018c01af9e790040020a6
:020000040000fa
:10400800054b9868db68984201d3c01a7047024a8a
:0c40180012691018c01af9e7d00400204b
:020000040000fa
:10402400054ad36a906a834201d8c01a7047024a8b
:0c403400126b1018c01af9e7d00400202d
:020000040000fa
:1040400070b50d001400012801d0200070bd2100c2
:0c4050002800fef769f80028f9d0f6e718
:020000040000fa
:10405c00044a137802210b431370138c9bb2002b70
:08406c00fbd17047000c00437a
:020000040000fa
:104074000143044b1981190004220b8c1342fcd117
:084084007047c046000c004328
:020000040000fa
:10408c00044b9b7901221340181e01d0014b9a71ed
:08409c007047c046000c004310
:020000040000fa
:1040a4000905090d034b1982190004228b681a4271
:0840b400fcd17047003000420e
:020000040000fa
:1040bc0013b50400019201aafdf7e6f96368db066b
:0840cc0001d50120404216bda0
:020000040000fa
:1040d400d0400b1cd1409c46203ad3401843524256
:0840e400634693401843704746
:020000040000fa
:1040ec009140031c90409c46203a93401943524205
:0840fc006346d34019437047ed
:020000040000fa
:1041040010b5002903d1fff715fd203002e0081c8b
:08411400fff710fd10bdc046cd
:020000040000fa
:10411c000378002b06d0030001331a78002afbd158
:08412c00181a70470020fce79f
:020000040000fa
:1041340068076c094c836a9074a07ac00080688810
:0641440000846c82008182
:020000040000fa
:10414c0010b5034b1c69fff721ff013c201a10bd71
:04415c00100400202b
:020000040000fa
:1041600010b5034b1c69fff733ff013c201a10bd4b
:044170009004002097
:020000040000fa
:1041740010b5034b1c69fff745ff013c201a10bd25
:04418400d004002043
:020000040000fa
:10418800034b00229a601a6801210a431a6070479b
:0441980010e000e053
:020000040000fa
:10419c00154200005f3f000015430000154300006e
:0441ac0015430000b7
:020000040000fa
:1041b00010b5002a05d00023cc5cc45401339342cf
:0441c000fad110bd63
:020000040000fa
:1041c40010b500f09df8024b1860586010bdc04651
:0441d400a005002022
:020000040000fa
:1041d80010b5034b1b68196800f094f810bdc04671
:0441e800e4050020ca
:020000040000fa
:1041ec00002a06d00300c9b2821819700133934219
:0441fc00fbd170473c
:020000040000fa
:1042000003000a7818001a7001310133002af8d12e
:044210007047c046ed
:020000040000fa
:104214008a18914201d10020704700230b700131ac
:02422400f7e7ba
:020000040000fa
:1042280010b50248fff740fe10bdc04648420000e6
:020000040000fa
:1042380010b50248fff738fe10bdc04658420000ce
:020000040000fa
:104248004d61673120547269676765720d00c04619
:020000040000fa
:104258004d61673220547269676765720d00c04608
:020000040000fa
:10426800494e4600696e66004e414e006e616e0012
:020000040000fa
:1042780010b5fff7a3fffff7e8fcfff7e6fc10bd5a
:020000040000fa
:1042880010b5fdf77ffc029a039bfdf79dfa10bd60
:020000040000fa
:0e4298000300413b192b01d820231843704727
:020000040000fa
:0c42a800014b988c80b27047000c004362
:020000040000fa
:0c42b400014b84225a607047004000411a
:020000040000fa
:0c42c000014b1860596070479405002005
:020000040000fa
:0c42cc00014b18607047c046e805002058
:020000040000fa
:0c42d800014b18687047c046b00500207c
:020000040000fa
:0c42e40010b50400fff78aff200010bd99
:020000040000fa
:0a42f00010b50068fff7a4fe10bd32
:020000040000fa
:0842fa00286e696c2900250003
:020000040000fa
:0843040000487047c8050020c5
:020000040000fa
:08430c0010b5fff785fc10bda0
:020000040000fa
:0443140000207047ce
:020000040000fa
:0443180000207047ca
:020000040000fa
:04431c0000207047c6
:020000040000fa
:0443200000207047c2
:020000040000fa
:044324007047c046d8
:020000040000fa
:0200000400807a
:04400000770600b08f
:020000040000fa
:0200000400807a
:04400400bb00ffffff
:00000001FF
